:020000040800F2
:1000000010040020A10100089F0B0008290B000824
:100010009D0B0008AD0200084D0C00080000000018
:10002000000000000000000000000000A30B00081A
:10003000AF02000800000000A10B0008A50B00089B
:10004000BB010008BB010008BB010008BB010008A0
:10005000BB010008BB010008BB010008BB01000890
:10006000BB010008BB010008BB010008BB01000880
:10007000BB010008BB010008BB010008BB01000870
:10008000BB010008BB010008BB010008BB01000860
:10009000BB010008BB010008BB010008BB01000850
:1000A000BB010008BB010008BB010008BB01000840
:1000B000BB010008BB010008BB010008BB01000830
:1000C000BB010008BB010008BB010008BB01000820
:1000D000BB010008BB010008BB010008BB01000810
:1000E000BB010008BB010008BB010008BB01000800
:1000F000BB010008BB010008BB010008BB010008F0
:10010000BB010008BB010008BB010008BB010008DF
:10011000BB010008BB010008BB010008BB010008CF
:10012000BB010008BB010008BB010008BB010008BF
:10013000BB010008BB010008BB010008BB010008AF
:10014000BB010008BB010008BB010008BB0100089F
:10015000BB010008BB010008BB010008BB0100088F
:10016000BB010008BB010008BB010008BB0100087F
:10017000BB010008BB010008BB0100080000000033
:10018000BB010008BB010008DFF810D000F07CF8CC
:10019000004800478D0C0008AFF3008010040020D9
:1001A0000648804706480047FEE7FEE7FEE7FEE711
:1001B000FEE7FEE7FEE7FEE7FEE7FEE73D0C000890
:1001C000890100082DE9F05F0546002092469B4614
:1001D00088460646814640241BE02846414647465D
:1001E000224600F041F853465A46C01A914110D3B6
:1001F00011461846224600F028F82D1A67EB010830
:100200004F4622460120002100F01FF817EB00099D
:100210004E41201EA4F10104DFDC484631462A4647
:100220004346BDE8F09FD2B201E000F8012B491E21
:10023000FBD270470022F6E710B513460A46044683
:100240001946FFF7F0FF204610BD202A04DB203AB4
:1002500000FA02F1002070479140C2F1200320FA19
:1002600003F3194390407047202A04DB203A21FA17
:1002700002F00021704721FA02F3D040C2F12002BF
:100280009140084319467047064C074D06E0E06868
:1002900040F0010394E8070098471034AC42F6D3CD
:1002A000FFF776FFD40C0008F40C0008FEE7704757
:1002B00070B5044600F012F90546601C02D00448EF
:1002C0000078044400F00AF9401BA042FAD370BD44
:1002D000000000202DE9F84FDFF8B8A10022012529
:1002E0000AF1040B03264FF00F090BF1040E00BFB7
:1002F0000B6805FA02F42340A3426FD10F7907F08F
:100300000307012F01D0022F16D187684FEA420858
:1003100006FA08FC27EA0C07D1F80CC00CFA08FC16
:100320004CEA070CC0F808C04768A7430C79C4F32F
:10033000001494403C4344600C79E443A4070AD081
:10034000C4684FEA420C06FA0CF7BC438F6807FA00
:100350000CF72743C7600C7904F00304022C12D178
:10036000D40800EB840CDCF820405707FF0E09FA94
:1003700007F824EA0804D1F8108008FA07F848EAD8
:100380000408CCF8208004684FEA420C06FA0CF707
:10039000BC430F7907F0030707FA0CF72743076000
:1003A0004C68E40070D53C4C276847F480472760D0
:1003B000246822F0030704F480440094374C07EBD0
:1003C000040CDCF8084897074FEA177809FA08F791
:1003D000BC43334FB84202D1002724E054E0314FF0
:1003E000B84201D101271EE02F4FB84201D10227A8
:1003F00019E02E4FB84201D1032714E02C4FB84228
:1004000001D104270FE02B4FB84201D105270AE0A4
:10041000294FB84201D1062705E0284FB84201D143
:10042000072700E0082707FA08F72743CCF80878E1
:10043000DAF800405746D1F804C09C435FEACC3C50
:1004400000D51C433C60DBF800405F46D1F804C097
:100450009C435FEA8C3C00D51C433C60DEF80040C6
:100460007746D1F804C09C435FEACC2C00D51C43EE
:100470003C60084F0C373C68D1F804C09C435FEAED
:100480008C2C00D51C433C60521C102AFFF430AF6A
:10049000BDE8F88F003C0140443802400030014084
:1004A000000002400004024000080240000C02402C
:1004B000001002400014024000180240001C0240DC
:1004C000426921EA02030A4043EA0241816170471E
:1004D0000AB1816170470904FBE7000001488068A8
:1004E0007047000000000020024881680278114433
:1004F00081607047000000200B4810B5016841F48E
:1005000000710160016841F480610160016841F49B
:1005100080710160032000F061F8002000F006F80F
:1005200000F024F8002010BD003C024070B50D4DD5
:1005300004464FF47A712878B1FBF0F00A49096853
:10054000B1FBF0F000F0DCFA48B9102C07D2002221
:100550002146501E00F022F800206C6070BD012082
:1005600070BD0000000000200C0000200A4808B503
:10057000016841F480410160006800F4804000900F
:100580000548001F016841F080510160006800F0DB
:100590008050009008BD000044380240F0B40E4B7B
:1005A0001B680C46C3F30223C3F10705042D00D9D1
:1005B0000425191D072901D2002300E0DB1E0126B6
:1005C00006FA05F1491E214099409E40761E1640CC
:1005D0003143F0BC00F03BBB0CED00E0064900F0FD
:1005E000070208684FF6FF03184040EA0220034A5A
:1005F00010430860704700000CED00E00000FA05B1
:100600002DE9F0470E46050065D0DFF81481D8F8D3
:100610000000F7B200F00700B04207D288F800707F
:10062000D8F8000000F00700B04254D128683D4CD3
:10063000810712D5400703D5206840F4E0502060C0
:100640002878000703D5206840F4604020602068C7
:10065000A96820F0F000084320602878C0072DD05A
:10066000304968680839012812D0022813D00328BD
:1006700011D00968890700292DDA216821F00301CA
:1006800001432160FFF72AFF814641F2883A0EE0DC
:1006900009688903EFE709688901ECE7FFF71EFFA6
:1006A000A0EB0901514502D90320BDE8F08720687D
:1006B000696800F00C00B0EB810FEFD1D8F80010A2
:1006C000404601F00701B14207D90770006800F009
:1006D0000700B04201D00120E7E72878400705D5A0
:1006E0002068E96820F4E05008432060287800077B
:1006F00006D52068296920F4604040EAC1002060E6
:1007000000F018F82168084AC1F30311515CC84091
:100710000649086006480068FFF708FF0020C4E7A4
:10072000003C024008380240C40C00080C000020C5
:1007300004000020154810B5006810F00C021448A1
:1007400013D04110042A0FD0082A0ED10F4C241FB9
:100750002268236802F03F025B0207D52068C0F3DD
:100760008810A0FB010106E0084610BD2168C1F316
:100770008811A1FB00010023FFF724FD2168C1F3CC
:100780000141491C4900B0FBF1F010BD083802409E
:100790000024F4002DE9F84F04006ED02078DFF833
:1007A0004C93C007A9F104054AD009F1040001687F
:1007B000C1F38101012908D00068C0F3810002283B
:1007C0000AD1D9F80000400206D52868800337D541
:1007D00060680028E1D033E06068B0F5803F10D059
:1007E000B0F5A02F286810D020F480302860286849
:1007F00020F4802028606068A8B1FFF76FFE0646ED
:100800000DE0286840F48030F4E740F48020286050
:10081000F7E700BFFFF762FE801B642873D82868E3
:100820008003F7D50CE0FFF759FE064605E000BF50
:10083000FFF754FE801B6428F0D828688003F7D4A3
:100840002078DFF8AC8280074FF0000A3ED5A74839
:10085000001D016811F00C0F08D00068C0F3810082
:1008600002280BD1D9F80000400207D4286880077D
:1008700016D5E068012800D112E033E1E068B8B194
:100880000120C8F80000FFF729FE064605E000BF7A
:10089000FFF724FE801B0228C0D828688007F7D500
:1008A0002868216920F0F80040EAC10028600DE0C6
:1008B000C8F800A0FFF712FE064604E0FFF70EFEA0
:1008C000801B02281FD828688007F7D420780007EB
:1008D00022D5864F87486169703771B10121016067
:1008E000FFF7FCFD064604E0FFF7F8FD801B022839
:1008F00009D838688007F7D50EE0C0F800A0FFF7E8
:10090000EDFD064605E082E0FFF7E8FD801B0228CA
:100910007DD838688007F7D42078400768D5DFF89D
:10092000CCB100270BF13C0BDBF80000C0000BD46E
:10093000DBF8001041F08051CBF80010DBF800002C
:10094000012700F0805000906B4E3068C00510D435
:10095000306840F480703060FFF7C0FD009005E023
:10096000FFF7BCFD0099401A022850D83068C00536
:10097000F6D55E4EA0686C3601280FD00528306889
:1009800010D020F001003060306820F004003060AA
:10099000A068B8B1FFF7A2FD00900FE0306840F00A
:1009A0000100F4E740F004003060F7E7FFF796FD40
:1009B0000099411A41F28830814266D83068800738
:1009C000F4D50EE0FFF78AFD009007E0FFF786FD03
:1009D0000099411A41F28830814256D83068800728
:1009E000F4D42FB1DBF8001021F08051CBF80010C7
:1009F000A069C8B33D49091D0968C1F381010229F5
:100A00004AD00228504607D0C8F8600000E03CE019
:100A1000FFF764FD04463BE04746C8F86000FFF777
:100A20005DFD064605E000BFFFF758FD801B02286C
:100A30002BD828688001F7D4D4E907010843A16ABC
:100A40002E4A490802EB0141626A41EA82110843D9
:100A500094F82C1040EA0161C9F8001001203866B2
:100A6000FFF73CFD044606E03EE000BFFFF736FD21
:100A7000001B022809D828688001F7D534E000BFA0
:100A8000FFF72CFD001B022802D90320BDE8F88FD8
:100A900028688001F4D427E00128F7D0D9F80000B5
:100AA000E26900F4800191421CD1226A00F03F010A
:100AB000914217D147F6C071626A0140B1EB821FC3
:100AC00010D1A26A4FF0FF3300F4403103EB520221
:100AD000B1EB024F06D194F82C1000F07060B0EB2F
:100AE000016F01D00120D1E70020CFE70438024098
:100AF00000004742800E4742007000400000FFFFA8
:100B000010B5401EB0F1807F01D3012010BD4FF021
:100B1000E02460610F21601700F099F80020A061C7
:100B200007202061002010BDFEE7000070B586B0F0
:100B300014216846FFF77EFB16480024016841F047
:100B400080010160016801F080010591016841F0B8
:100B500008010160016801F008010591016841F098
:100B60000101016000680C4E00F001004FF44045A7
:100B70000590002229463046FFF7AAFC0120009587
:100B8000CDE90104694630460394FFF7A3FB06B0A4
:100B900070BD000030380240000C0240FEE7FEE766
:100BA00070477047FFF7A0BC30B593B0302168465E
:100BB000FFF740FB14210CA8FFF73CFB1D48002564
:100BC000016841F080510160006800F08050119090
:100BD0001948016841F4804101600068022400F472
:100BE0008040119001200090000401908001CDE927
:100BF000064008AA0420A82182E813000B9068464A
:100C0000FFF7C8FD08B172B6FEE70CA90F2081E816
:100C100031004FF4A0500F904FF4805010900521F8
:100C20000CA8FFF7EDFC002801D072B6FEE713B068
:100C300030BD0000403802400070004002480168AA
:100C400041F470010160704788ED00E0FEE709079C
:100C5000090E002804DB00F1E02080F80014704742
:100C600000F00F0000F1E02080F8141D704702E052
:100C700008C8121F08C1002AFAD170477047002027
:100C800001E001C1121F002AFBD17047FFF734FCBD
:100C9000FFF78AFFFFF74AFF4FF48045084C6E00CC
:100CA00029462046FFF70CFCDE20FFF701FB31460A
:100CB0002046FFF705FCDE20FFF7FAFAF0E7000018
:100CC000000C0240000000000000000001020304CC
:100CD00006070809F40C00080000002010000000BE
:100CE0006E0C0008040D0008100000200004000035
:100CF0007E0C000801000000100000000000000051
:040D00000024F400D7
:040000050800018965
:00000001FF
